:020000002C2DA5
:10000800FF00030E8301E1000A08E2008A0170087C
:10001800AB007108AA007208A9007408A800750846
:10002800A7007808A6007908A5007A08A4007B082C
:10003800A3007C08A2007D08A1000408AC000B1DE9
:10004800AD284B084C040319742849084A040319BD
:1000580062280A30F4000030F5004708F00048082C
:10006800F1008B2470088316AA007108AB000A30CF
:10007800F4000030F50083124708F0004808F1004A
:100088008B247808F0007908F1000A30F400003079
:10009800F5008B24700883162A02AC007108031C33
:1000A800013E2B02AD00F424700883128600061668
:1000B8008612CB01CC01C901CA01732858088316DE
:1000C800AC00831259088316AD00F424700883121B
:1000D800860006168612CB01CC01C901CA01AA28DE
:1000E80049084A04031997280A30F4000030F5003B
:1000F8004708F0004808F1008B247808F0007908D8
:10010800F10070088316AC007108AD00F424700883
:1001180083128600061286160130CB000030CC0010
:10012800C901CA01AA284D088316AC0083124E08DB
:100138008316AD00F4247008831286000612861612
:100148000130CB000030CC00C901CA010B1164306A
:1001580081000C1CCF28091CC62800304A06031D44
:10016800B72801304906031DBC288316A901BF28FA
:1001780083160130A90029088312C9000030C91B61
:10018800FF30CA00091DC828891CCA280C100B306A
:100198008F00DC308E002B08F0002A08F1002908B7
:1001A800F2002808F4002708F5002608F8002508BA
:1001B800F9002408FA002308FB002208FC002108A3
:1001C800FD002C08840062088A00610E8300FF0E7F
:0401D8007F0E09008D
:1001DC0083120313F801F9011030FC00710DF80DB6
:1001EC00F90D7408F8027508031C750FF902031851
:1001FC0006297408F80775080318750FF90703101A
:0A020C00F00DF10DFC0BF4280800C2
:10021600710DF80DF90D7408F8027508031C750FB9
:10022600F902F00DF10D0F30FC00710DF80DF90D0E
:100236007408701C2429F8027508031C750FF9024E
:100246002929F80775080318750FF907F00DF10D40
:10025600FC0B1829701835297408F8077508031857
:08026600750FF9070000080004
:10026E007408F8027508031C750FF9027608031C52
:10027E00760FFA027708031C770FFB02F30D073097
:10028E00FC00730DF80DF90DFA0DFB0D7408731CBF
:10029E005E29F8027508031C750FF9027608031C17
:1002AE00760FFA027708031C770FFB026B29F8070B
:1002BE0075080318750FF90776080318760FFA07F5
:1002CE0077080318770FFB07F30DFC0B4829720D07
:1002DE00F80DF90DFA0DFB0D7408731C8429F80244
:1002EE007508031C750FF9027608031C760FFA02C7
:1002FE007708031C770FFB029129F807750803187E
:10030E00750FF90776080318760FFA0777080318A2
:10031E00770FFB07F20D0730FC00720DF80DF90D8B
:10032E00FA0DFB0D7408721CAA29F8027508031C3D
:10033E00750FF9027608031C760FFA027708031C74
:10034E00770FFB02B729F80775080318750FF90721
:10035E0076080318760FFA0777080318770FFB074E
:10036E00F20DFC0B9429710DF80DF90DFA0DFB0D24
:10037E007408721CD029F8027508031C750FF90257
:10038E007608031C760FFA027708031C770FFB0220
:10039E00DD29F80775080318750FF9077608031895
:1003AE00760FFA0777080318770FFB07F10D073062
:1003BE00FC00710DF80DF90DFA0DFB0D7408711C92
:1003CE00F629F8027508031C750FF9027608031C4E
:1003DE00760FFA027708031C770FFB02032AF80741
:1003EE0075080318750FF90776080318760FFA07C4
:1003FE0077080318770FFB07F10DFC0BE029700D42
:10040E00F80DF90DFA0DFB0D7408711C1C2AF8027B
:10041E007508031C750FF9027608031C760FFA0295
:10042E007708031C770FFB02292AF80775080318B3
:10043E00750FF90776080318760FFA077708031871
:10044E00770FFB07F00D0730FC00700DF80DF90D5E
:10045E00FA0DFB0D7408701C422AF8027508031C75
:10046E00750FF9027608031C760FFA027708031C43
:10047E00770FFB024F2AF80775080318750FF90757
:10048E0076080318760FFA0777080318770FFB071D
:10049E00F00DFC0B2C2A7018622A7408F8077508E8
:1004AE000318750FF90776080318760FFA07770801
:0804BE000318770FFB0708008B
:1004C600FB09FA09F909F809F80A0319F90A0319DF
:0804D600FA0A0319FB0A0800F1
:1004DE0083160313A7010530270203187D2A270868
:1004EE002607840020308000A70A722A27082607D4
:1004FE0084008001A70327082607A8000A30F4000D
:10050E00F5012408F0002508F100EE207808F0002F
:10051E007908F1003030F00783162808840070083F
:10052E0080000A30F400F5012408F0002508F100DF
:10053E00EE2070088316A4007108A5000030710625
:10054E00031DAB2A00307006031DAE2AB02AA70386
:04055E00822A0800E5
:10056200243083120313FD00FD0BB52A000008009E
:10057200831603139818BF2A0000B92A240883128D
:0405820099000800D4
:0E0586008312031350088A004F0882000800F9
:10059400831203137408003A031DE52A7508003A10
:1005A400031DE52A7608003A031DE52A7708003A78
:1005B400031DE52AFF30F000FF30F100FF30F200A8
:1005C4007F30F3007E2B83120313FC01F71BFC0A1C
:1005D400FD01FB01FA01F901F801730872047104C9
:1005E40070040319792B73087706A000A01BFD097A
:1005F400F71F072BF409F509F609F709F40A03199B
:10060400F50A0319F60A0319F70AF31F142BF00964
:10061400F109F209F309F00A0319F10A0319F20ABC
:100624000319F30A73087704A000A01B352B3721A4
:10063400FC1B522BFD1F792BF009F109F209F30978
:10064400F00A0319F10A0319F20A0319F30AF80963
:10065400F909FA09FB09F80A0319F90A0319FA0A4C
:100664000319FB0A792BF71F4C2BF31B462B73083A
:10067400FB007208FA007108F9007008F800F30131
:10068400F201F101F0011C2BF301F201F101F0017F
:10069400F00A0034F309F209F109F009FC17192BE7
:1006A400F80A0319F90A0319FA0A0319FB0A740868
:1006B4007802031D1C2B75087902031D1C2B760878
:1006C4007A02031D1C2B77087B02031D1C2BFB01E4
:1006D400FA01F901F801F00A0319F10A0319F20AFF
:1006E4000319F30AF31F1C2BA0012016FF34A001E9
:0A06F4007C1C7D2B6322003E0800F1
:1006FE0083160313A001A10183126B088316A200B7
:10070E0083126C088316A300803083126C06F000EF
:10071E0080307002031D952B00306B020318A82B3E
:10072E0001308316A0000030A10083126B08003C3C
:10073E008316A20083126C08031C013E8316A301CC
:10074E00A30283162208A4002308A50083126D08B5
:10075E008316A6006F2206308312EE000030EF00E3
:10076E006F08003C031DBD2B6E08003C0318D82BF0
:10077E006E086D07F20001306E02F0000030031CAF
:10078E00013E6F02F10070086D0784000008F00052
:10079E0072088400700880000130EE02031CEF0323
:1007AE00B72B6D08840020308000831620082104AA
:1007BE000319F82B8312EE01EF016E086D0784000A
:1007CE000008203A031DEF2BEE0A0319EF0AE42B63
:1007DE000130EE02031CEF036E086D0784002D300E
:0407EE00800008007F
:1007F200831203139F01C0309F042D09F00070087B
:1008020083169F051F179F1783126B08F000F00DC8
:100812007010F00D7010F00D701070089F041F140E
:10082200B1221F151F1D172C0000132C1F101E08AC
:10083200F100F00183161E08F0040030F1040800F4
:10084200831203132230FC00F801F901FA01FB01C3
:10085200FC030319572C0310FB0CFA0CF90CF80CCF
:10086200F30CF20CF10CF00C031C292CFC03031901
:10087200492C7408F80775080318750FF9077608EC
:100882000318760FFA0777080318770FFB072D2C4A
:100892007408F80775080318750FF9077608031826
:0E08A200760FFA0777080318770FFB07080098
:1008B00083120313ED016B0884000008EC006C0840
:1008C000003A03196E2C6C088316A400B922ED0AB5
:0E08D0006D086B0784000008EC005F2C080028
:1008DE008316031398169030831298008316871789
:1008EE00071383128C1E7E2C1A08F000782C080039
:1008FE00C3228A110A128000840ACF0A0319D00A71
:08090E00F003031D7F2C08001B
:10091600831203137408003A031D9A2C7508003AD3
:10092600031D9A2CFF30F0007F30F100F32C831268
:100936000313FD01F901F80171087004031900346D
:1009460071087506FA00FA1BFD09FB01F51FB02CAC
:10095600F409F509F40A0319F50AF11FB72CF00991
:10096600F109F00A0319F10A71087504FA00FA1B75
:10097600CC2C0B217B18DF2CFD1F0034F009F1096C
:10098600F00A0319F10AF809F909F80A0319F90A2C
:100996000034F51FDB2CF11BD72C7108F900700809
:1009A600F800F101F001BF2CF101F001F00A00346A
:1009B600F109F009FB0ABC2CF80A0319F90A7408B4
:1009C6007802031DBF2C75087902031DBF2CF9019F
:1009D600F801F00A0319F10AF11FBF2C0000FF34D9
:0209E600080007
:1009E80083160313AE01AF010130B0000030B1002F
:1009F8000230B2000030B3000330B4000030B5005C
:100A08000430B6000030B7000530B8000030B90037
:100A18000630BA000030BB000730BC000030BD0013
:100A28000830BE000030BF000930C0000030C100EF
:100A38002C08F0002D08F100F00DF10D7010700871
:100A4800AE3E84000008F000840A0008F1000800A7
:100A58004C260730831603139C00013083129F0035
:100A68000E3083169F0005143130831290000C104D
:100A78000B308F00DC308E0083160C148730810019
:100A880009308312900064308100E0308B00FF3021
:100A98008316890086018312860106128612813028
:100AA8008316990018156F240330FB008A30FC0068
:100AB8005530FD00FD0B5E2DFC0B5E2DFB0B5E2DF6
:100AC800000000003230EB0058240A308316A400DE
:100AD800B9220D308316A400B922EB01F92370085E
:100AE8008312B8007108B900BA01BB013808F000D8
:100AF8003908F1003A08F2003B08F3000E30F40020
:100B0800F501F601F7012124FF30F4000330F50068
:100B1800F601F701CA227008B8007108B900720816
:100B2800BA007308BB007008EB007108EC00513084
:100B3800ED007F23513083120313EB0058242E302D
:100B4800EB0058240A308316A400B9220D3083160E
:100B5800A400B9224708EB004808EC005A30ED0021
:100B68007F235A3083120313EB0058243C30EB00E8
:100B780058240A308316A400B9220D308316A40025
:100B8800B9220D308316A400B9220330FB008A3045
:100B9800FC005530FD00FD0BCF2DFC0BCF2DFB0BC2
:100BA800CF2D000000000A30F400F501F601F7012E
:100BB8003808F0003908F1003A08F2003B08F30061
:100BC800CA227008E7007108E8007208E900730893
:100BD800EA000A30F400F501F601F7013808F000E0
:100BE8003908F1003A08F2003B08F300CA227808F5
:100BF800F0007908F1007A08F2007B08F300700829
:100C0800E3007108E4007208E5007308E6000A30A2
:100C1800F400F501F601F7016308F0006408F1003B
:100C28006508F2006608F300CA2270086702D80057
:100C38007108031C013E6802D9006308CD006408EE
:060C4800CE00712D262EE6
:100C98002D308400203083120313F0002C30CF0055
:080CA8000630D0007F24080093
:020C58000F3457
:080C5A0020345034483400340A
:0C0C620053347434613472347434003440
:080C6E000034003400340034AE
:100C76002034533465347434203470346F3469341A
:060C86006E3474340034EA
:040C8C000D340034EF
:040C900001340034F7
:040C940001340034F3
:02400E00492F38
:00000001FF
