:020000000E2DC3
:10000800FF00030E8301E2000A08E3008A0170087A
:10001800AB007108AA007208A9007408A800750846
:10002800A7007808A6007908A5007A08A4007B082C
:10003800A3007C08A2007D08A1000408AC000B1DE9
:10004800A3282D082E0403196E283B083C04031925
:100058005E280A30F4000030F5002F08F000300860
:10006800F1006D2470088316AA007108AB000A30ED
:10007800F4000030F50083122F08F0003008F1007A
:100088006D247808F0007908F1000A30F400003097
:10009800F5006D24700883162A02AC007108031C51
:1000A800013E2B02AD00D624700883128600061686
:1000B80086126B2851088316AC00831252088316E7
:1000C800AD00D62470088312860006168612AD018C
:1000D800AE01A0283B083C0403198F280A30F4001D
:1000E8000030F5002F08F0003008F1006D24780882
:1000F800F0007908F10070088316AC007108AD00B3
:10010800D624700883128600061286160130AD00C8
:100118000030AE00A0283E088316AC0083123F08CA
:100128008316AD00D6247008831286000612861640
:100138000130AD000030AE000B11643081002B0897
:10014800F0002A08F1002908F2002808F40027081E
:10015800F5002608F8002508F9002408FA00230805
:10016800FB002208FC002108FD002C08840063081D
:0C0178008A00620E8300FF0E7F0E09005B
:1001840083120313F801F9011030FC00710DF80D0E
:10019400F90D7408F8027508031C750FF9020318A9
:1001A400DA287408F80775080318750FF90703109F
:0A01B400F00DF10DFC0BC828080047
:1001BE00710DF80DF90D7408F8027508031C750F12
:1001CE00F902F00DF10D0F30FC00710DF80DF90D67
:1001DE007408701CF828F8027508031C750FF902D4
:1001EE00FD28F80775080318750FF907F00DF10DC6
:1001FE00FC0BEC28701809297408F8077508031809
:08020E00750FF907000008005C
:100216007408F8027508031C750FF9027608031CAA
:10022600760FFA027708031C770FFB02F30D0730EF
:10023600FC00730DF80DF90DFA0DFB0D7408731C17
:100246003229F8027508031C750FF9027608031C9B
:10025600760FFA027708031C770FFB023F29F8078F
:1002660075080318750FF90776080318760FFA074D
:1002760077080318770FFB07F30DFC0B1C29720D8B
:10028600F80DF90DFA0DFB0D7408731C5829F802C8
:100296007508031C750FF9027608031C760FFA021F
:1002A6007708031C770FFB026529F8077508031802
:1002B600750FF90776080318760FFA0777080318FB
:1002C600770FFB07F20D0730FC00720DF80DF90DE4
:1002D600FA0DFB0D7408721C7E29F8027508031CC2
:1002E600750FF9027608031C760FFA027708031CCD
:1002F600770FFB028B29F80775080318750FF907A6
:1003060076080318760FFA0777080318770FFB07A6
:10031600F20DFC0B6829710DF80DF90DFA0DFB0DA8
:100326007408721CA429F8027508031C750FF902DB
:100336007608031C760FFA027708031C770FFB0278
:10034600B129F80775080318750FF9077608031819
:10035600760FFA0777080318770FFB07F10D0730BA
:10036600FC00710DF80DF90DFA0DFB0D7408711CEA
:10037600CA29F8027508031C750FF9027608031CD2
:10038600760FFA027708031C770FFB02D729F807C6
:1003960075080318750FF90776080318760FFA071C
:1003A60077080318770FFB07F10DFC0BB429700DC6
:1003B600F80DF90DFA0DFB0D7408711CF029F80201
:1003C6007508031C750FF9027608031C760FFA02EE
:1003D6007708031C770FFB02FD29F8077508031839
:1003E600750FF90776080318760FFA0777080318CA
:1003F600770FFB07F00D0730FC00700DF80DF90DB7
:10040600FA0DFB0D7408701C162AF8027508031CF9
:10041600750FF9027608031C760FFA027708031C9B
:10042600770FFB02232AF80775080318750FF907DB
:1004360076080318760FFA0777080318770FFB0775
:10044600F00DFC0B002A7018362A7408F807750898
:100456000318750FF90776080318760FFA07770859
:080466000318770FFB070800E3
:10046E00FB09FA09F909F809F80A0319F90A031937
:08047E00FA0A0319FB0A080049
:1004860083120313EF0105306F020318532A6F0816
:10049600831628078400203080008312EF0A462A3C
:1004A6006F0883162807840080018312EF036F0804
:1004B60083162807A9000A30F400F5012608F00083
:1004C6002708F100C2207808F0007908F1003030E2
:1004D600F007831629088400700880000A30F400AB
:1004E600F5012608F0002708F100C22070088316DF
:1004F600A6007108A70000307106031D842A00308B
:100506007006031D872A8A2A8312EF035A2A0800D7
:10051600243083120313FD00FD0B8F2A0000080010
:10052600831603139818992A0000932A83126F08DA
:040536009900080020
:0E053A008312031350088A004F088200080045
:10054800831203137408003A031DBF2A7508003A82
:10055800031DBF2A7608003A031DBF2A7708003A10
:10056800031DBF2AFF30F000FF30F100FF30F2001A
:100578007F30F300582B83120313FC01F71BFC0A8E
:10058800FD01FB01FA01F901F80173087204710415
:1005980070040319532B73087706A000A01BFD09EC
:1005A800F71FE12AF409F509F609F709F40A03190E
:1005B800F50A0319F60A0319F70AF31FEE2AF009D8
:1005C800F109F209F309F00A0319F10A0319F20A09
:1005D8000319F30A73087704A000A01B0F2B0B2143
:1005E800FC1B2C2BFD1F532BF009F109F209F30911
:1005F800F00A0319F10A0319F20A0319F30AF809B0
:10060800F909FA09FB09F80A0319F90A0319FA0A98
:100618000319FB0A532BF71F262BF31B202B7308F8
:10062800FB007208FA007108F9007008F800F3017D
:10063800F201F101F001F62AF301F201F101F001F2
:10064800F00A0034F309F209F109F009FC17F32A5A
:10065800F80A0319F90A0319FA0A0319FB0A7408B4
:100668007802031DF62A75087902031DF62A760812
:100678007A02031DF62A77087B02031DF62AFB017E
:10068800FA01F901F801F00A0319F10A0319F20A4B
:100698000319F30AF31FF62AA0012016FF34A0015C
:0A06A8007C1C572B3722003E08008F
:1006B20083160313A201A30183126C088316A400FC
:1006C20083126D088316A500803083126D06F00038
:1006D20080307002031D6F2B00306C020318822BD6
:1006E20001308316A2000030A30083126C08003C84
:1006F2008316A40083126D08031C013E8316A50114
:10070200A50283162408A6002508A70083126E08F6
:100712008316A8004322063083160313A00000307C
:10072200A1002108003C031D982B2008003C03185F
:10073200B72B200883126E07F200013083162002C5
:10074200F0000030031C013E2102F1007008831208
:100752006E0784000008F0007208840070088000B0
:1007620001308316A002031CA103922B83126E0890
:100772008400203080008316220823040319DB2B17
:10078200A001A101200883126E0784000008203A0C
:10079200031DD02B8316A00A0319A10AC32B8316AB
:1007A2000130A002031CA103200883126E078400FB
:0607B2002D30800008005C
:1007B800831203139F01C0309F043D09F0007008A5
:1007C80083169F051F179F1783126C08F000F00D02
:1007D8007010F00D7010F00D701070089F041F1449
:1007E8008B221F151F1DFA2B0000F62B1F101E0849
:1007F800F100F00183161E08F0040030F10408002F
:10080800831203132230FC00F801F901FA01FB01FD
:10081800FC0303193A2C0310FB0CFA0CF90CF80C26
:10082800F30CF20CF10CF00C031C0C2CFC03031958
:100838002C2C7408F80775080318750FF907760843
:100848000318760FFA0777080318770FFB07102CA1
:100858007408F80775080318750FF9077608031860
:0E086800760FFA0777080318770FFB070800D2
:1008760083120313EE016C0884000008ED006D0876
:10088600003A0319502C6D08EF009322EE0A6E0809
:0C0896006C0784000008ED00422C0800F4
:1008A20083160313981690308312980083168717C5
:1008B200071383128C1E602C1A08F0005A2C0800B1
:1008C2009D228A110A128000840ACF0A0319D00AD3
:0808D200F003031D612C080076
:1008DA00831203137408003A031D7C2C7508003A2E
:1008EA00031D7C2CFF30F0007F30F100D52C8312E1
:1008FA000313FD01F901F8017108700403190034AA
:10090A0071087506FA00FA1BFD09FB01F51F922C06
:10091A00F409F509F40A0319F50AF11F992CF009EB
:10092A00F109F00A0319F10A71087504FA00FA1BB1
:10093A00AE2CDF207B18C12CFD1F0034F009F10911
:10094A00F00A0319F10AF809F909F80A0319F90A68
:10095A000034F51FBD2CF11BB92C7108F900700881
:10096A00F800F101F001A12CF101F001F00A0034C4
:10097A00F109F009FB0A9E2CF80A0319F90A74080E
:10098A007802031DA12C75087902031DA12CF90117
:10099A00F801F00A0319F10AF11FA12C0000FF3433
:0209AA00080043
:1009AC0083160313AE01AF010130B0000030B1006B
:1009BC000230B2000030B3000330B4000030B50098
:1009CC000430B6000030B7000530B8000030B90074
:1009DC000630BA000030BB000730BC000030BD0050
:1009EC000830BE000030BF000930C0000030C1002C
:1009FC002C08F0002D08F100F00DF10D70107008AE
:100A0C00AE3E84000008F000840A0008F1000800E3
:100A1C0032260730831603139C00013083129F008B
:100A2C000E3083169F000514851505168516873024
:100A3C008100643083128100E0308B00831609142E
:100A4C0089140915860183128601061286128130DB
:100A5C0083169900181551240330FB008A30FC00D2
:100A6C005530FD00FD0B382DFC0B382DFB0B382DB4
:100A7C00000000003530EC003B240A30EF009322DC
:100A8C000D30EF009322EC01DC2370088312B100CF
:100A9C007108B200B301B4013108F0003208F10062
:100AAC003308F2003408F3000E30F400F501F601BF
:100ABC00F7010424FF30F4000330F500F601F701D0
:100ACC00A4227008B1007108B2007208B300730858
:100ADC00B4003B083C0403198D2D003085190130FE
:100AEC00EC00ED015430EE00592354308312031303
:100AFC00EC003B244030EC003B240A30EF00932206
:100B0C000D30EF0093220D30EF009322A22D31080F
:100B1C00EC003208ED005B30EE0059235B308312A1
:100B2C000313EC003B244B30EC003B240A30EF0069
:100B3C0093220D30EF0093228519B32D53140330FB
:100B4C00FB008A30FC005530FD00FD0BAB2DFC0B7F
:100B5C00AB2DFB0BAB2D00000000531CBA2D8519DF
:100B6C00BA2DBB09BC0953100A30F400F501F6018B
:100B7C00F7013108F0003208F1003308F2003408B4
:100B8C00F300A4227008E8007108E9007208EA007A
:100B9C007308EB000A30F400F501F601F701310897
:100BAC00F0003208F1003308F2003408F300A422FC
:100BBC007808F0007908F1007A08F2007B08F3005D
:100BCC007008E4007108E5007208E6007308E7009D
:100BDC000A30F400F501F601F7016408F00065082D
:100BEC00F1006608F2006708F300A422700868029E
:100BFC00D1007108031C013E6902D2006408BE00DA
:080C0C006508BF00492D092E07
:100C64002D308400223083120313F0000F30CF00A4
:080C74000630D00061240800E5
:040C1E000134003469
:040C22000D34003459
:080C26000034003400340034F6
:0C0C2E0053347434613472347434003474
:040C3A00013400344D
:020C3E000F3471
:040C40000034003448
:100C44002034533465347434203470346F3469344C
:060C54006E34743400341C
:080C5A0020345034483400340A
:02400E00492F38
:00000001FF
