:02000000DF2AF5
:10000800FF00030E83018316A7000A08A8008A01CF
:1000180070088312A8007108A7007208A600740867
:10002800A5007808A4007A08A3007B08A2007C0831
:10003800A1007D08A0000408A9000C1C93288316C1
:10004800A61C8A28261D6028261C52280A30F4007F
:100058002108F0008E2270088316B3000A30F400DD
:100068002108F0008E227808F0000A30F4008E2271
:10007800700883163302B400B501031CB5030030C1
:10008800B31BFF30B5070130F01F0030B50726223B
:10009800700883128600061686125D2883162408C7
:1000A800B4002508B50026227008831286000616BB
:1000B8008612831626118928261C79280A30F4000E
:1000C8002108F0008E227808F00070088316B4002A
:1000D8000030B41BFF30B50026227008831286005A
:1000E8000612861683162615892883123308831666
:1000F800B400831234088316B500262270088312D0
:10010800860006128616831626158D288312061673
:10011800861683120C1063308F00C0308E000B1DC2
:10012800B42800306F06031D9B2832306E06031D6D
:10013800AD28EE01EF018316A61CA628261CA628CA
:10014800B001A8280130B0003018AC28A610AD289E
:10015800A6140B113D3083128100EE0A0319EF0A31
:100168008C1C072900303206031DBC281E303106BE
:10017800031DE028B101B201081CD02883162614FB
:1001880021080E3A031DCB280E30B100CE28A10A53
:100198002108B1003108A1008312081DE028831648
:1001A80026142108003A031DDB28B201DE28A1032A
:1001B8002108B2003208A100003083122B06031D6B
:1001C800E72846302A06031DFF28AA01AB01881C30
:1001D800FF288316B4012108B5005E228230FC0096
:1001E800DD30FD00FD0BF628FC0BF62800000000B2
:1001F80001300313A6068312B10A0319B20AAA0A28
:100208000319AB0A8C102808F0002708F10026080B
:10021800F2002508F4002408F8002308FA00220850
:10022800FB002108FC002008FD0029088400831633
:0E02380028088A00270E8300FF0E7F0E0900A3
:0E0246008316031323088A0022088200080092
:10025400243083120313FD00FD0B2E290000080037
:10026400710DF80DF90D7408F8027508031C750F6B
:10027400F902F00DF10D0F30FC00710DF80DF90DC0
:100284007408701C4B29F8027508031C750FF902D9
:100294005029F80775080318750FF907F00DF10DCB
:1002A400FC0B3F2970185C297408F80775080318BB
:0802B400750FF90700000800B6
:1002BC00831203137408003A031D6D297508003A64
:1002CC00031D6D29FF30F0007F30F100C629831229
:1002DC000313FD01F901F8017108700403190034CE
:1002EC0071087506FA00FA1BFD09FB01F51F83293D
:1002FC00F409F509F40A0319F50AF11F8A29F00922
:10030C00F109F00A0319F10A71087504FA00FA1BD5
:10031C009F2932217B18B229FD1F0034F009F10905
:10032C00F00A0319F10AF809F909F80A0319F90A8C
:10033C000034F51FAE29F11BAA297108F9007008C9
:10034C00F800F101F0019229F101F001F00A0034FA
:10035C00F109F009FB0A8F29F80A0319F90A740844
:10036C007802031D922975087902031D9229F9015F
:10037C00F801F00A0319F10AF11F92290000FF3469
:02038C00080067
:10038E0023218A110A128000840AA20A0319A30AE1
:08039E00F003031DC72908004C
:1003A600831203139F01C0309F046D09F00070088B
:1003B60083169F051F179F172F08F000F00D70106A
:1003C600F00D7010F00D7010700883129F041F144A
:1003D6002A211F151F1DF1290000ED291F101E08D7
:1003E600F100F00183161E08F0040030F104080045
:1003F60083120313FB01FA01F9018030F800F10CB6
:10040600F00C031C0F2A7408F90775080318750FFA
:10041600FA070318FB0A0310F01F172A7408FA07D5
:1004260075080318750FFB07FB0CFA0CF90CF80C92
:10043600031C022A7B08F3007A08F2007908F1000F
:060446007808F000080038
:10044C0083160313B601B7010130B8000030B900B0
:10045C000230BA000030BB000330BC000030BD00DD
:10046C000430BE000030BF000530C0000030C100B9
:10047C000630C2000030C3000730C4000030C50095
:10048C000830C6000030C7000930C8000030C90071
:10049C003408F0003508F100F00DF10D7010700803
:1004AC00B63E84000008F000840A0008F100080041
:1004BC00831603178C1C642A00005E2A031334086D
:1004CC00831203178D008316031335088312031749
:1004DC008C0083168C130C150B08F0008B13553005
:1004EC008D00AA308D008C14F01B7E2A8B137F2A72
:0604FC008B170C11080033
:10050200831603132F08831203178D0083168C138F
:0A0512000C1483120C08F00008001E
:10051C0083120313FD01F8017008031900347406EB
:10052C00FA00FA1BFD09FB01F41F9E2AF409F40AD8
:10053C00F01FA22AF009F00A70087404FA00FA1BE2
:10054C00C62A7408F802F00D700DF80D7408F8073F
:10055C00F00D0630FC00700DF80D74087018F802E0
:10056C00701CF807F00DFC0BB12A701CF8077B18F7
:10057C00D42AFD1F0034F009F00AF809F80A0034F7
:10058C00F41FD12AF01BCE2A7008F800F001BF2A04
:10059C00F001F00A0034F009FB0AA72AF80A7408E3
:1005AC007802031DBF2AF801F00AF01FBF2AFF349E
:0205BC00080035
:1005BE00462483160313AF01812200307002031804
:1005CE00EC2A83160313A901F42A83160313AF0131
:1005DE008122700883160313A9002908A100413057
:1005EE00FC00EE30FD00FD0BFA2AFC0BFA2A00008F
:1005FE00AF01812270080E3C03180A2B0E308316B1
:10060E000313AA00122B83160313AF018122700865
:10061E0083160313AA002A08A10007309C0001309C
:10062E0083129F00053083169F0005140730880043
:10063E0083128801013090000C1063308F00C0309F
:10064E008E0083160C14873081003D30831281009A
:10065E00E0308B0066309200F030831692008C14DE
:10066E008601831286010612861208128812081756
:10067E0088172E088316A000AF01D32170088312AD
:10068E00AC007108AD000E30F4000030F500FB2117
:10069E00FF30F4000330F5005E217008AC007108E5
:1006AE00AD00700883162102F2007108031C013E92
:1006BE00F301F3020030A11BFF30F3078030730605
:1006CE00F00080307002031D6E2B00307202031892
:1006DE00732B8312AE01792B83122C088316210201
:1006EE008312AE002E08831620060319812B831267
:1006FE00AF01B0014130FC00EE30FD008312FD0B66
:10070E00852BFC0B852B00002E08F000F00D7010D1
:10071E007008353E84000008F100840A0008F200DB
:10072E0072083002031D9D2B71082F020318A22B95
:10073E0008168816BB2B2E08F000F00D70107008EE
:10074E00513E84000008F100840A0008F20072088D
:10075E003002031DB42B71082F020318B92B081297
:10076E008812BB2BAF01B0010A30F4000030F50047
:10077E002C08F0002D08F1005E2170088316AD00E4
:10078E007108AE000A30F4000030F50083122C0818
:10079E00F0002D08F1005E217808F0007908F100D4
:1007AE0070088316AB007108AC000A30F4000030FC
:1007BE00F5002B08F0002C08F1005E21700883165E
:1007CE002D02A4007108031C013E2E02A5002B0869
:1007DE008312B30083162C088312B400AF0A0319D8
:0607EE00B00A402BF92BBC
:10088C002A308400463083120313F000FF308316A5
:0A089C00A2000330A300C7210800EA
:0407FE00003400348F
:04080200003400348A
:020806000034BC
:040808000034003484
:04080C000034003480
:04081000003400347C
:100814000034003414340034283400343C340034BC
:100824005034003464340034783400348C3400346C
:10083400A0340034B4340034C8340034DC3400341C
:08084400F034003404340134E7
:10084C00F4340134E0340134CC340134B8340134A0
:10085C00A4340134903401347C34013468340134D0
:10086C0054340134403401342C3401341834013400
:08087C0004340134F0340034AF
:020884000F342F
:040886000034003406
:02400E00492F38
:00000001FF
