:02000000DB2BF8
:10000800FF00030E8301C3000A08C4008A017008B8
:10001800A3007108A2007208A1000408A4000B1D27
:10002800352825082604031925283808DB0039084F
:10003800DC0086237008860006168612A501A60134
:1000480032283A08DB003B08DC008623700886006B
:10005800061286160130A5000030A6000B11643088
:1000680081002308F0002208F1002108F20024088A
:10007800840044088A00430E8300FF0E7F0E0900A7
:1000880083120313F801F9011030FC00710DF80D0B
:10009800F90D7408F8027508031C750FF9020318A6
:1000A8005C287408F80775080318750FF90703101A
:0A00B800F00DF10DFC0B4A280800C2
:1000C20083120313D9010530590203186F28590806
:1000D2005807840020308000D90A6428590858073C
:1000E20084008001D90359085807DA000A30F40065
:1000F200F5015608F0005708F10044207808F00096
:100102007908F1003030F0075A0884007008800046
:100112000A30F400F5015608F0005708F1004420B7
:100122007008D6007108D70000307106031D9B28A5
:1001320000307006031D9E28A028D90374280800E9
:100142007408F8027508031C750FF9027608031C7F
:10015200760FFA027708031C770FFB02F30D0730C4
:10016200FC00730DF80DF90DFA0DFB0D7408731CEC
:10017200C828F8027508031C750FF9027608031CDB
:10018200760FFA027708031C770FFB02D528F807CF
:1001920075080318750FF90776080318760FFA0722
:1001A20077080318770FFB07F30DFC0BB228720DCB
:1001B200F80DF90DFA0DFB0D7408731CEE28F80208
:1001C2007508031C750FF9027608031C760FFA02F4
:1001D2007708031C770FFB02FB28F8077508031842
:1001E200750FF90776080318760FFA0777080318D0
:1001F200770FFB07F20D0730FC00720DF80DF90DB9
:10020200FA0DFB0D7408721C1429F8027508031C00
:10021200750FF9027608031C760FFA027708031CA1
:10022200770FFB022129F80775080318750FF907E4
:1002320076080318760FFA0777080318770FFB077B
:10024200F20DFC0BFE28710DF80DF90DFA0DFB0DE8
:100252007408721C3A29F8027508031C750FF9021A
:100262007608031C760FFA027708031C770FFB024D
:100272004729F80775080318750FF9077608031858
:10028200760FFA0777080318770FFB07F10D07308F
:10029200FC00710DF80DF90DFA0DFB0D7408711CBF
:1002A2006029F8027508031C750FF9027608031C11
:1002B200760FFA027708031C770FFB026D29F80705
:1002C20075080318750FF90776080318760FFA07F1
:1002D20077080318770FFB07F10DFC0B4A29700D05
:1002E200F80DF90DFA0DFB0D7408711C8629F80240
:1002F2007508031C750FF9027608031C760FFA02C3
:100302007708031C770FFB029329F8077508031877
:10031200750FF90776080318760FFA07770803189E
:10032200770FFB07F00D0730FC00700DF80DF90D8B
:10033200FA0DFB0D7408701CAC29F8027508031C39
:10034200750FF9027608031C760FFA027708031C70
:10035200770FFB02B929F80775080318750FF9071B
:1003620076080318760FFA0777080318770FFB074A
:10037200F00DFC0B96297018CC297408F807750843
:100382000318750FF90776080318760FFA0777082E
:080392000318770FFB070800B8
:10039A00FB09FA09F909F809F80A0319F90A03190C
:0803AA00FA0A0319FB0A08001E
:1003B2000E3083120313FD00FD0BDD29000008003F
:1003C200831603139818E7290000E12983125608BF
:0403D2009900080086
:0E03D6008312031337088A00360882000800DD
:1003E400831203137408003A031D0D2A7508003A9A
:1003F400031D0D2A7608003A031D0D2A7708003ADA
:10040400031D0D2AFF30F000FF30F100FF30F20031
:100414007F30F300A62A83120313FC01F71BFC0AA6
:10042400FD01FB01FA01F901F8017308720471047A
:1004340070040319A12A73087706A000A01BFD0904
:10044400F71F2F2AF409F509F609F709F40A031925
:10045400F50A0319F60A0319F70AF31F3C2AF009EF
:10046400F109F209F309F00A0319F10A0319F20A6E
:100474000319F30A73087704A000A01B5D2AA120C6
:10048400FC1B7A2AFD1FA12AF009F109F209F309DC
:10049400F00A0319F10A0319F20A0319F30AF80915
:1004A400F909FA09FB09F80A0319F90A0319FA0AFE
:1004B4000319FB0AA12AF71F742AF31B6E2A730877
:1004C400FB007208FA007108F9007008F800F301E3
:1004D400F201F101F001442AF301F201F101F0010A
:1004E400F00A0034F309F209F109F009FC17412A72
:1004F400F80A0319F90A0319FA0A0319FB0A74081A
:100504007802031D442A75087902031D442A7608DB
:100514007A02031D442A77087B02031D442AFB0147
:10052400FA01F901F801F00A0319F10A0319F20AB0
:100534000319F30AF31F442AA0012016FF34A00173
:0A0544007C1CA52ACD21003E080012
:10054E00831203132230FC00F801F901FA01FB01BA
:10055E00FC030319DD2A0310FB0CFA0CF90CF80C42
:10056E00F30CF20CF10CF00C031CAF2AFC03031974
:10057E00CF2A7408F80775080318750FF90776085F
:10058E000318760FFA0777080318770FFB07B32ABD
:10059E007408F80775080318750FF907760803181D
:0E05AE00760FFA0777080318770FFB0708008F
:1005BC00831203139F01C0309F042709F0007008B9
:1005CC0083169F051F179F1783124D08F000F00D1F
:1005DC007010F00D7010F00D701070089F041F1447
:1005EC00D9211F151F1DFC2A0000F82A1F101E08F8
:1005FC00F100F00183161E08F0040030F10408002D
:10060C0083120313D201D3014D08D4004E08D50038
:10061C0080304E06F00080307002031D172B003026
:10062C004D020318252B0130D2000030D3004D08A9
:10063C00003CD4004E08031C013ED501D5025408E1
:10064C00D6005508D7004F08D80061200630D000DE
:10065C000030D1005108003C031D362B5008003CE3
:10066C000318512B50084F07F20001305002F000D4
:10067C000030031C013E5102F10070084F0784004A
:10068C000008F00072088400700880000130D0026D
:10069C00031CD103302B4F088400203080005208FB
:1006AC00530403196F2BD001D10150084F0784005C
:1006BC000008203A031D662BD00A0319D10A5B2BC4
:1006CC000130D002031CD10350084F0784002D3099
:0406DC008000080092
:1006E00083120313CF014D0884000008CE004E088A
:1006F000003A0319852B4E08D600E121CF0A4F0896
:0C0700004D0784000008CE00772B080095
:10070C0083160313A001A1010130A2000030A30045
:10071C000230A4000030A5000330A6000030A70072
:10072C000430A8000030A9000530AA000030AB004E
:10073C000630AC000030AD000730AE000030AF002A
:10074C000830B0000030B1000930B2000030B30006
:10075C0083125B08F0005C08F100F00DF10D7010D5
:10076C007008A03E84000008F000840A0008F10024
:02077C00080073
:10077E00EB218A110A128000840AB60A0319B70AFD
:08078E00F003031DBF2B08005E
:1007960083160313981690308312980083168717D2
:1007A600071383128C1EDA2B1A08F000D42B0800CC
:1007B600BE240730831603139C00013083129F006A
:1007C6000E3083169F00051487308100093083128E
:1007D600900064308100A0308B008316860183125E
:1007E6008601061286123330831699001815CB231C
:1007F6000230FB000430FC00BA30FD00FD0B012C7A
:10080600FC0B012CFB0B012C00002C30CD007023BF
:100816000A30D600E1210D30D600E121CD01DE22DD
:1008260070088312B2007108B300B401B501320832
:10083600F0003308F1003408F2003508F3000E30FA
:10084600F400F501F601F701A722FF30F4000330AA
:10085600F500F601F701F2217008B2007108B30045
:100866007208B4007308B5007008CD007108CE0098
:100876003C30CF0006233C30CD0070232830CD001D
:1008860070230A30D600E1210D30D600E121023076
:10089600FB000430FC00BA30FD00FD0B502CFC0BB5
:1008A600502CFB0B502C00000A30F400F501F60129
:1008B600F7013208F0003308F1003408F200350879
:1008C600F300F2217008C9007108CA007208CB0053
:1008D6007308CC000A30F400F501F601F70132087E
:1008E600F0003308F1003408F2003508F300F22175
:1008F6007808F0007908F1007A08F2007B08F30026
:100906007008C5007108C6007208C7007308C800E1
:100916000A30F400F501F601F7014508F000460833
:10092600F1004708F2004808F300F2217008490276
:10093600B8007108031C013E4A02B9004508BA0016
:080946004608BB00112CA62C91
:10097C0025308400113083120313F000AC30B60024
:08098C000430B700BF2308008E
:040958000134003432
:02095C000F3456
:08095E00203450344834003409
:0C0966005334743461347234743400343F
:080972000034003400340034AD
:02400E00492F38
:00000001FF
