:02000000082ACC
:08000600FA1FF213003008009C
:0E000E00F201F101F001F801F30100300800E9
:10001C007B15FB1F18280130F300F201F101F001F0
:08002C00FA0DF20CFF30080090
:10003400A0017208031D2F287108F2007008F10056
:10004400F001A0157208031D2F287108F200F101B8
:10005400A0112016720803193D282008F302031D7D
:10006400031C41280310F21B4528F00DF10DF20D7D
:10007400F30B352841280130FC00072048280230C2
:0E008400FC000E2048280430FC000320080079
:0E009200831203132B088A002A08820008003C
:1000A000243083120313FD00FD0B542800000800C8
:1000B000710DF80DF90D7408F8027508031C750F21
:1000C000F902F00DF10D0F30FC00710DF80DF90D76
:1000D0007408701C7128F8027508031C750FF9026A
:1000E0007628F80775080318750FF907F00DF10D5C
:1000F000FC0B6528701882287408F8077508031827
:08010000750FF907000008006B
:1001080083120313B901BA010130BB000030BC00EF
:100118000230BD000030BE000330BF000030C00018
:100128000430C1000030C2000530C3000030C400F4
:100138000630C5000030C6000730C7000030C800D0
:100148000830C9000030CA000930CB000030CC00AC
:100158003708F0003808F100F00DF10D7010700844
:10016800393E84000008F000840A0008F100080005
:10017800831203139F01C0309F042909F0007008FF
:1001880083169F051F179F1783123708F000F00D7D
:100198007010F00D7010F00D701070089F041F148F
:1001A80050201F151F1DDA280000D6281F101E0812
:1001B800F100F00183161E08F0040030F104080075
:1001C80083120313FB01FA01F9018030F800F10CE6
:1001D800F00C031CF8287408F90775080318750F44
:1001E800FA070318FB0A0310F01F00297408FA071E
:1001F80075080318750FFB07FB0CFA0CF90CF80CC3
:10020800031CEB287B08F3007A08F2007908F10058
:060218007808F000080068
:10021E00831203137408003A031D1E297508003A51
:10022E00031D1E29FF30F0007F30F1007729831265
:10023E000313FD01F901F80171087004031900346C
:10024E0071087506FA00FA1BFD09FB01F51F34292A
:10025E00F409F509F40A0319F50AF11F3B29F0090F
:10026E00F109F00A0319F10A71087504FA00FA1B74
:10027E00502958207B186329FD1F0034F009F1091D
:10028E00F00A0319F10AF809F909F80A0319F90A2B
:10029E000034F51F5F29F11B5B297108F900700806
:1002AE00F800F101F0014329F101F001F00A0034E8
:1002BE00F109F009FB0A4029F80A0319F90A740832
:1002CE007802031D432975087902031D4329F9019C
:1002DE00F801F00A0319F10AF11F43290000FF3457
:0202EE00080006
:1002F00049208A110A128000840AAA0A0319AB0A4B
:08030000F003031D7829080039
:10030800831203137008F8007108F000F101F2017C
:10031800F301FB01FC019630F300FA01F01F9A2962
:10032800F809F009F80A0319F00AFA177008F10039
:0C0338007808F000F801F2011A2008001B
:10034400FF3083120313AC00FF30AD00FF30AE006A
:10035400FF309F01C0309F042909F0007008831604
:0C0364009F051F179F1783121F1408002D
:1003700083120313FA017308031D7A147708031D0F
:10038000FA147A080319042A033A0319CF297A18B0
:10039000CC29F61F022A002AF21F002A022A72081C
:1003A0008039FA00F21376088039F6137A060319B9
:1003B000DD297A080319002A022A77087302031933
:1003C000E429031CF829FC29760872020319EB2999
:1003D000031CF829FC29750871020319F229031C72
:1003E000F829FC29740870020319042A0318FC294F
:1003F000FA080319022A002AFA080319002A022A15
:100400000314080003100800031403150800080073
:10041000AA25C530831203139F0083169C01870110
:1004200086018312860187130713A221B701BC201E
:1004300070088312A1007108A2000E30F400003091
:10044000F500E4200030F4000430F5000F21842191
:100450007008A3007108A4007208A5007308A60024
:10046000F401F501F601F701B8210130031C003059
:10047000F00070080319562ACD30F400CC30F50096
:100480004C30F6007E30F7002308F0002408F1001D
:100490002508F2002608F300B821013003180030C7
:1004A000F00070080319562AA701A801CD30F40006
:1004B000CC30F5004C30F6007E30F7002308F00019
:1004C0002408F1002508F2002608F300B8210130C5
:1004D000031C0030F000700803198A2A6630F4000B
:1004E0006630F5006630F6007F30F7002308F00034
:1004F0002408F1002508F2002608F300B821013095
:1005000003180030F000700803198A2A0130A70090
:100510000030A8006630F4006630F5006630F60062
:100520007F30F7002308F0002408F1002508F200CE
:100530002608F300B8210130031C0030F0007008D9
:100540000319BE2A3330F4003330F5003330F6009F
:100550008030F7002308F0002408F1002508F2009D
:100560002608F300B821013003180030F0007008AD
:100570000319BE2A0230A7000030A8003330F4006F
:100580003330F5003330F6008030F7002308F000F8
:100590002408F1002508F2002608F300B8210130F4
:1005A000031C0030F00070080319F22A3330F40005
:1005B0003330F5007330F6008030F7002308F00088
:1005C0002408F1002508F2002608F300B8210130C4
:1005D00003180030F00070080319F22A0330A70056
:1005E0000030A8003330F4003330F5007330F600EB
:1005F0008030F7002308F0002408F1002508F200FD
:100600002608F300B8210130031C0030F000700808
:100610000319262B9A30F4009930F5001930F600B2
:100620008130F7002308F0002408F1002508F200CB
:100630002608F300B821013003180030F0007008DC
:100640000319262B0430A7000030A8009A30F400CC
:100650009930F5001930F6008130F7002308F000DA
:100660002408F1002508F2002608F300B821013023
:10067000031C0030F000700803195A2B9A30F40064
:100680009930F5003930F6008130F7002308F0008A
:100690002408F1002508F2002608F300B8210130F3
:1006A00003180030F000700803195A2B0530A7001A
:1006B0000030A8009A30F4009930F5003930F60087
:1006C0008130F7002308F0002408F1002508F2002B
:1006D0002608F300B8210130031C0030F000700838
:1006E00003198E2B9A30F4009930F5005930F6003A
:1006F0008130F7002308F0002408F1002508F200FB
:100700002608F300B821013003180030F00070080B
:1007100003198E2B0630A7000030A8009A30F40091
:100720009930F5005930F6008130F7002308F000C9
:100730002408F1002508F2002608F300B821013052
:10074000031C0030F00070080319C22B9A30F4002B
:100750009930F5007930F6008130F7002308F00079
:100760002408F1002508F2002608F300B821013022
:1007700003180030F00070080319C22B0730A700DF
:100780000030A8009A30F4009930F5007930F60076
:100790008130F7002308F0002408F1002508F2005A
:1007A0002608F300B8210130031C0030F000700867
:1007B0000319F62BCD30F400CC30F5000C30F600E8
:1007C0008230F7002308F0002408F1002508F20029
:1007D0002608F300B821013003180030F00070083B
:1007E0000319F62B0830A7000030A800CD30F40024
:1007F000CC30F5000C30F6008230F7002308F00012
:100800002408F1002508F2002608F300B821013081
:10081000031C0030F000700803192A2CCD30F400BE
:10082000CC30F5001C30F6008230F7002308F000D1
:100830002408F1002508F2002608F300B821013051
:1008400003180030F000700803192A2C0930A700A3
:100850000030A800CD30F400CC30F5001C30F6009C
:100860008230F7002308F0002408F1002508F20088
:100870002608F300B8210130031C0030F000700896
:1008800003195E2CCD30F400CC30F5002C30F6008E
:100890008230F7002308F0002408F1002508F20058
:1008A0002608F300B821013003180030F00070086A
:1008B00003195E2C0A30A7000030A800CD30F400E8
:1008C000CC30F5002C30F6008230F7002308F00021
:1008D0002408F1002508F2002608F300B8210130B1
:1008E000031C0030F00070080319922CCD30F40086
:1008F000CC30F5003C30F6008230F7002308F000E1
:100900002408F1002508F2002608F300B821013080
:1009100003180030F00070080319922C0B30A70068
:100920000030A800CD30F400CC30F5003C30F600AB
:100930008230F7002308F0002408F1002508F200B7
:100940002608F300B8210130031C0030F0007008C5
:100950000319C62CCD30F400CC30F5004C30F60035
:100960008230F7002308F0002408F1002508F20087
:100970002608F300B821013003180030F000700899
:100980000319C62C0C30A7000030A800CD30F400AD
:10099000CC30F5004C30F6008230F7002308F00030
:1009A0002408F1002508F2002608F300B8210130E0
:1009B000031C0030F00070080319FA2CCD30F4004D
:1009C000CC30F5005C30F6008230F7002308F000F0
:1009D0002408F1002508F2002608F300B8210130B0
:1009E00003180030F00070080319FA2C0D30A7002E
:1009F0000030A800CD30F400CC30F5005C30F600BB
:100A00008230F7002308F0002408F1002508F200E6
:100A10002608F300B8210130031C0030F0007008F4
:100A20000319162D0E30A7000030A8002108A700DA
:100A30002208A8000230FC002930FD00FD0B1E2D0D
:100A4000FC0B1E2D000000006430F4000030F500A7
:100A50002708F0002808F1000F217808F000790835
:100A6000F1007008B5007108B6003508B10036080D
:100A7000B2000A30F4000030F5003508F000360806
:100A8000F1000F217008B3007108B4000A30F400BF
:100A90000030F5003508F0003608F1000F21780825
:100AA000F0007908F1000A30F4000030F5000F2161
:100AB00070083302F0007108031C013E3402F1009B
:100AC0007008B1007108B2007008B7007108B80072
:100AD00084207008860087172130FC007630FD00E6
:100AE000FD0B702DFC0B702D000087130A30F400F5
:100AF0000030F5002708F0002808F1000F217808E1
:100B0000F0007908F1007008AF007108B0007008BB
:100B1000B7007108B80084207008860007172130DC
:100B2000FC007630FD00FD0B932DFC0B932D000097
:060B30000713162A9A2D9E
:100B540021308400093083120313F000A030AA006E
:080B64000530AB007821080008
:040B40000034003449
:080B44000034003400340034D9
:040B4C00003400343D
:020B50000F3460
:02400E00492F38
:00000001FF
