:02000000872A4D
:10000800FF00030E8301C2000A08C3008A017008BA
:10001800AC007108AB007208AA007308A900740844
:10002800A8007508A7007808A6007908A5007A082E
:10003800A4007B08A3007C08A2007D08A100040896
:10004800AD000C1F42280130C800BA217008831285
:10005800B5007108B6000E30F4000030F500E2215A
:10006800FF30F4000330F50051210D227008B10073
:100078007108B2007208B3007308B4000B1D612840
:1000880037083804031954283B08C8003C08C9003D
:1000980003217008860087178713B701B801612804
:1000A8004008C8004108C9000321700886000717E6
:1000B80007130130B7000030B8002C08F0002B08F7
:1000C800F1002A08F2002908F3002808F40027089C
:1000D800F5002608F8002508F9002408FA00230886
:1000E800FB002208FC002108FD002D0884004308BD
:0C00F8008A00420E8300FF0E7F0E0900FC
:08010400FA1FF213003008009D
:0E010C00F201F101F001F801F30100300800EA
:10011A007B15FB1F97280130F300F201F101F00172
:08012A00FA0DF20CFF30080091
:10013200A0017208031DAE287108F2007008F100D8
:10014200F001A0157208031DAE287108F200F1013A
:10015200A011201672080319BC282008F302031DFF
:10016200031CC0280310F21BC428F00DF10DF20D80
:10017200F30BB428C0280130FC008620C7280230C7
:0E018200FC008D20C7280430FC0082200800FD
:10019000243083120313FD00FD0BCC28000008005F
:0E01A000831203133A088A003908820008000F
:1001AE00710DF80DF90D7408F8027508031C750F22
:1001BE00F902F00DF10D0F30FC00710DF80DF90D77
:1001CE007408701CF028F8027508031C750FF902EC
:1001DE00F528F80775080318750FF907F00DF10DDE
:1001EE00FC0BE428701801297408F8077508031829
:0801FE00750FF907000008006D
:1002060083120313CA01CB010130CC000030CD00AC
:100216000230CE000030CF000330D0000030D100D5
:100226000430D2000030D3000530D4000030D500B1
:100236000630D6000030D7000730D8000030D9008D
:100246000830DA000030DB000930DC000030DD0069
:100256004808F0004908F100F00DF10D7010700823
:100266004A3E84000008F000840A0008F1000800F5
:10027600FF3083120313BD00FF30BE00FF30BF0006
:10028600FF309F01C0309F042E09F00070088316CE
:0C0296009F051F179F1783121F140800FC
:1002A200831203137408003A031D60297508003A8B
:1002B200031D6029FF30F0007F30F100B92983125D
:1002C2000313FD01F901F8017108700403190034E8
:1002D20071087506FA00FA1BFD09FB01F51F762964
:1002E200F409F509F40A0319F50AF11F7D29F00949
:1002F200F109F00A0319F10A71087504FA00FA1BF0
:100302009229D7207B18A529FD1F0034F009F10995
:10031200F00A0319F10AF809F909F80A0319F90AA6
:100322000034F51FA129F11B9D297108F9007008FD
:10033200F800F101F0018529F101F001F00A003421
:10034200F109F009FB0A8229F80A0319F90A74086B
:100352007802031D852975087902031D8529F90193
:10036200F801F00A0319F10AF11F85290000FF3490
:02037200080081
:10037400831203139F01C0309F042E09F0007008FC
:1003840083169F051F179F1783124808F000F00D6E
:100394007010F00D7010F00D701070089F041F1491
:1003A400C8201F151F1DD8290000D4291F101E089E
:1003B400F100F00183161E08F0040030F104080077
:1003C40083120313FB01FA01F9018030F800F10CE8
:1003D400F00C031CF6297408F90775080318750F47
:1003E400FA070318FB0A0310F01FFE297408FA0722
:1003F40075080318750FFB07FB0CFA0CF90CF80CC5
:10040400031CE9297B08F3007A08F2007908F1005B
:060414007808F00008006A
:10041A00831203137008F8007108F000F101F20169
:10042A00F301FB01FC019630F300FA01F01F232AC5
:10043A00F809F009F80A0319F00AFA177008F10026
:0C044A007808F000F801F2019920080089
:10045600D0208A110A128000840AB90A0319BA0A3E
:08046600F003031D2B2A08001E
:10046E0083120313FA017308031D7A147708031D10
:10047E00FA147A080319832A033A03194E2A7A18B2
:10048E004B2AF61F812A7F2AF21F7F2A812A7208A1
:10049E008039FA00F21376088039F6137A060319BA
:1004AE005C2A7A0803197F2A812A770873020319B6
:1004BE00632A031C772A7B2A7608720203196A2A9A
:1004CE00031C772A7B2A750871020319712A031CF3
:1004DE00772A7B2A740870020319832A03187B2A51
:1004EE00FA080319812A7F2AFA0803197F2A812A1A
:1004FE000314080003100800031403150800080075
:10050E00F825C530831203139F0083169C0180309B
:10051E008100FF308312900081018B170B178B1611
:10052E0083160C1787018601831286018713071322
:10053E003B21F401F501F601F7013108F000320814
:10054E00F1003308F2003408F30037220130031CA7
:10055E000030F00070080319CE2ACD30F400CC30F4
:10056E00F5004C30F6007E30F7003108F00032080E
:10057E00F1003308F2003408F3003722013003187B
:10058E000030F00070080319CE2AAF01B001CD3053
:10059E00F400CC30F5004C30F6007E30F700310818
:1005AE00F0003208F1003308F2003408F30037226D
:1005BE000130031C0030F00070080319022B663066
:1005CE00F4006630F5006630F6007F30F700310833
:1005DE00F0003208F1003308F2003408F30037223D
:1005EE00013003180030F00070080319022B01309F
:1005FE00AF000030B0006630F4006630F5006630B3
:10060E00F6007F30F7003108F0003208F1003308B1
:10061E00F2003408F30037220130031C0030F000E2
:10062E0070080319362B3330F4003330F5003330B5
:10063E00F6008030F7003108F0003208F100330880
:10064E00F2003408F3003722013003180030F000B6
:10065E0070080319362B0230AF000030B000333073
:10066E00F4003330F5003330F6008030F7003108F7
:10067E00F0003208F1003308F2003408F30037229C
:10068E000130031C0030F000700803196A2B333060
:10069E00F4003330F5007330F6008030F700310887
:1006AE00F0003208F1003308F2003408F30037226C
:1006BE00013003180030F000700803196A2B033064
:1006CE00AF000030B0003330F4003330F50073303B
:1006DE00F6008030F7003108F0003208F1003308E0
:1006EE00F2003408F30037220130031C0030F00012
:1006FE00700803199E2B9A30F4009930F5001930CA
:10070E00F6008130F7003108F0003208F1003308AE
:10071E00F2003408F3003722013003180030F000E5
:10072E00700803199E2B0430AF000030B0009A30D1
:10073E00F4009930F5001930F6008130F7003108D9
:10074E00F0003208F1003308F2003408F3003722CB
:10075E000130031C0030F00070080319D22B9A30C0
:10076E00F4009930F5003930F6008130F700310889
:10077E00F0003208F1003308F2003408F30037229B
:10078E00013003180030F00070080319D22B053029
:10079E00AF000030B0009A30F4009930F5003930D7
:1007AE00F6008130F7003108F0003208F10033080E
:1007BE00F2003408F30037220130031C0030F00041
:1007CE0070080319062C9A30F4009930F500593050
:1007DE00F6008130F7003108F0003208F1003308DE
:1007EE00F2003408F3003722013003180030F00015
:1007FE0070080319062C0630AF000030B0009A3096
:10080E00F4009930F5005930F6008130F7003108C8
:10081E00F0003208F1003308F2003408F3003722FA
:10082E000130031C0030F000700803193A2C9A3086
:10083E00F4009930F5007930F6008130F700310878
:10084E00F0003208F1003308F2003408F3003722CA
:10085E00013003180030F000700803193A2C0730ED
:10086E00AF000030B0009A30F4009930F5007930C6
:10087E00F6008130F7003108F0003208F10033083D
:10088E00F2003408F30037220130031C0030F00070
:10089E00700803196E2CCD30F400CC30F5000C30FE
:1008AE00F6008230F7003108F0003208F10033080C
:1008BE00F2003408F3003722013003180030F00044
:1008CE00700803196E2C0830AF000030B000CD3028
:1008DE00F400CC30F5000C30F6008230F700310811
:1008EE00F0003208F1003308F2003408F30037222A
:1008FE000130031C0030F00070080319A22CCD301B
:10090E00F400CC30F5001C30F6008230F7003108D0
:10091E00F0003208F1003308F2003408F3003722F9
:10092E00013003180030F00070080319A22C0930B2
:10093E00AF000030B000CD30F400CC30F5001C30EC
:10094E00F6008230F7003108F0003208F10033086B
:10095E00F2003408F30037220130031C0030F0009F
:10096E0070080319D62CCD30F400CC30F5002C30A5
:10097E00F6008230F7003108F0003208F10033083B
:10098E00F2003408F3003722013003180030F00073
:10099E0070080319D62C0A30AF000030B000CD30ED
:1009AE00F400CC30F5002C30F6008230F700310820
:1009BE00F0003208F1003308F2003408F300372259
:1009CE000130031C0030F000700803190A2DCD30E1
:1009DE00F400CC30F5003C30F6008230F7003108E0
:1009EE00F0003208F1003308F2003408F300372229
:1009FE00013003180030F000700803190A2D0B3077
:100A0E00AF000030B000CD30F400CC30F5003C30FB
:100A1E00F6008230F7003108F0003208F10033089A
:100A2E00F2003408F30037220130031C0030F000CE
:100A3E00700803193E2DCD30F400CC30F5004C304B
:100A4E00F6008230F7003108F0003208F10033086A
:100A5E00F2003408F3003722013003180030F000A2
:100A6E00700803193E2D0C30AF000030B000CD30B1
:100A7E00F400CC30F5004C30F6008230F70031082F
:100A8E00F0003208F1003308F2003408F300372288
:100A9E000130031C0030F00070080319722D003075
:100AAE00F4000030F5005830F6008230F7003108BF
:100ABE00F0003208F1003308F2003408F300372258
:100ACE00013003180030F00070080319722D0D303C
:100ADE00AF000030B0000030F4000030F5005830A8
:100AEE00F6008230F7003108F0003208F1003308CA
:100AFE00F2003408F30037220130031C0030F000FE
:100B0E00700803198E2D0E30AF000030B000643027
:100B1E00F4000030F5002F08F0003008F1005121EC
:100B2E007808F0007908F1007008C6007108C70057
:100B3E004608BB004708BC000A30F4000030F50040
:100B4E004608F0004708F10051217008C4007108F2
:100B5E00C5000A30F4000030F5004608F0004708E2
:100B6E00F10051217808F0007908F1000A30F40004
:100B7E000030F500512170084402BB007108031CBF
:100B8E00013E4502BC000A30F4000030F5002F088B
:100B9E00F0003008F10051217808F0007908F100DA
:100BAE007008C0007108C1000230FC002930FD0041
:100BBE00FD0BDF2DFC0BDF2D00000000A02AE62D23
:100BF0002E3084000B3083120313F000EC30B90068
:080C00000530BA002B220800A8
:020BD8000F34D8
:040BDA0000340034AF
:080BDE0000340034003400343F
:040BE60000340034A3
:040BEA00013400349E
:02400E00492F38
:00000001FF
