:02000000302AA4
:10000800FF00030E8301B6000A08B7008A017008D2
:10001800A3007108A2007208A1000408A4000B1D27
:1000280032282B082C04031925283208BD00330870
:10003800BE00F8217008860087178713AB01AC0152
:1000480032283408BD003508BE00F8217008860043
:10005800071707130130AB000030AC002308F0008D
:100068002208F1002108F2002408840037088A00D9
:0A007800360E8300FF0E7F0E090014
:08008200FA1FF2130030080020
:0E008A00F201F101F001F801F301003008006D
:100098007B15FB1F56280130F300F201F101F00136
:0800A800FA0DF20CFF30080014
:0E00B0008312031331088A0030088200080012
:1000BE00A0017208031D74287108F2007008F10087
:1000CE00F001A0157208031D74287108F200F101E9
:1000DE00A01120167208031982282008F302031DAE
:1000EE00031C86280310F21B8A28F00DF10DF20D69
:1000FE00F30B7A2886280130FC0045208D2802302B
:0E010E00FC004C208D280430FC00412008002D
:10011C00710DF80DF90D7408F8027508031C750FB4
:10012C00F902F00DF10D0F30FC00710DF80DF90D09
:10013C007408701CA728F8027508031C750FF902C7
:10014C00AC28F80775080318750FF907F00DF10DB9
:10015C00FC0B9B287018B8287408F807750803184E
:08016C00750FF90700000800FF
:10017400243083120313FD00FD0BBE280000080089
:1001840083120313FA017308031D7A147708031DFD
:10019400FA147A0803190E29033A0319D9287A188C
:1001A400D628F61F0C290A29F21F0A290C297208DD
:1001B4008039FA00F21376088039F6137A060319A7
:1001C400E7287A0803190A290C2977087302031906
:1001D400EE28031C02290629760872020319F52861
:1001E400031C02290629750871020319FC28031C43
:1001F400022906297408700203190E290318062916
:10020400FA0803190C290A29FA0803190A290C29DE
:100214000314080003100800031403150800080061
:1002240083120313FB01FA01F9018030F800F10C89
:10023400F00C031C26297408F90775080318750FB8
:10024400FA070318FB0A0310F01F2E297408FA0793
:1002540075080318750FFB07FB0CFA0CF90CF80C66
:10026400031C19297B08F3007A08F2007908F100CD
:060274007808F00008000C
:10027A00831203137408003A031D4C297508003AC7
:10028A00031D4C29FF30F0007F30F100A5298312AD
:10029A000313FD01F901F801710870040319003410
:1002AA0071087506FA00FA1BFD09FB01F51F6229A0
:1002BA00F409F509F40A0319F50AF11F6929F00985
:1002CA00F109F00A0319F10A71087504FA00FA1B18
:1002DA007E298E207B189129FD1F0034F009F1092F
:1002EA00F00A0319F10AF809F909F80A0319F90ACF
:1002FA000034F51F8D29F11B89297108F90070084E
:10030A00F800F101F0017129F101F001F00A00345D
:10031A00F109F009FB0A6E29F80A0319F90A7408A7
:10032A007802031D712975087902031D7129F901E3
:10033A00F801F00A0319F10AF11F71290000FF34CC
:02034A000800A9
:10034C0058208A110A128000840AB00A0319B10AD3
:08035C00F003031DA6290800AF
:10036400831203139F01C0309F042D09F00070080D
:1003740083169F051F179F1783123C08F000F00D8A
:100384007010F00D7010F00D701070089F041F14A1
:10039400BA201F151F1DD0290000CC291F101E08CC
:1003A400F100F00183161E08F0040030F104080087
:1003B400831203137008F8007108F000F101F201D0
:1003C400F301FB01FC019630F300FA01F01FF02960
:1003D400F809F009F80A0319F00AFA177008F1008D
:0C03E4007808F000F801F2015F2008002A
:1003F00083120313BF01C0010130C1000030C200ED
:100400000230C3000030C4000330C5000030C60015
:100410000430C7000030C8000530C9000030CA00F1
:100420000630CB000030CC000730CD000030CE00CD
:100430000830CF000030D0000930D1000030D200A9
:100440003D08F0003E08F100F00DF10D701070084D
:100450003F3E84000008F000840A0008F100080014
:10046000B225C930831203139F0083169C0180308C
:100470008100FF308312900081018B170B178B16C0
:1004800083168701860183128601871307130130C3
:10049000BC00B22170088312AE007108AF000E30AC
:1004A000F4000030F5001221FF30F4000330F500B5
:1004B0003D21DA217008A7007108A8007208A90080
:1004C0007308AA00F401F501F601F701C22001301A
:1004D000031C0030F00070080319882ACD30F400A6
:1004E000CC30F5004C30F6007E30F7002708F000E5
:1004F0002808F1002908F2002A08F300C220013080
:1005000003180030F00070080319882AA501A6011D
:10051000CD30F400CC30F5004C30F6007E30F700E2
:100520002708F0002808F1002908F2002A08F30043
:10053000C2200130031C0030F00070080319BC2AEF
:100540006630F4006630F5006630F6007F30F70064
:100550002708F0002808F1002908F2002A08F30013
:10056000C220013003180030F00070080319BC2AC3
:100570000130A5000030A6006630F4006630F500BA
:100580006630F6007F30F7002708F0002808F100F9
:100590002908F2002A08F300C2200130031C0030B1
:1005A000F00070080319F02A3330F4003330F500FE
:1005B0003330F6008030F7002708F0002808F100FB
:1005C0002908F2002A08F300C22001300318003085
:1005D000F00070080319F02A0230A5000030A600D0
:1005E0003330F4003330F5003330F6008030F7005C
:1005F0002708F0002808F1002908F2002A08F30073
:10060000C2200130031C0030F00070080319242BB5
:100610003330F4003330F5007330F6008030F700EB
:100620002708F0002808F1002908F2002A08F30042
:10063000C220013003180030F00070080319242B89
:100640000330A5000030A6003330F4003330F5004D
:100650007330F6008030F7002708F0002808F1001A
:100660002908F2002A08F300C2200130031C0030E0
:10067000F00070080319582B9A30F4009930F500F7
:100680001930F6008130F7002708F0002808F10043
:100690002908F2002A08F300C220013003180030B4
:1006A000F00070080319582B0430A5000030A60094
:1006B0009A30F4009930F5001930F6008130F700D7
:1006C0002708F0002808F1002908F2002A08F300A2
:1006D000C2200130031C0030F000700803198C2B7D
:1006E0009A30F4009930F5003930F6008130F70087
:1006F0002708F0002808F1002908F2002A08F30072
:10070000C220013003180030F000700803198C2B50
:100710000530A5000030A6009A30F4009930F500AD
:100720003930F6008130F7002708F0002808F10082
:100730002908F2002A08F300C2200130031C00300F
:10074000F00070080319C02B9A30F4009930F500BE
:100750005930F6008130F7002708F0002808F10032
:100760002908F2002A08F300C220013003180030E3
:10077000F00070080319C02B0630A5000030A60059
:100780009A30F4009930F5005930F6008130F700C6
:100790002708F0002808F1002908F2002A08F300D1
:1007A000C2200130031C0030F00070080319F42B44
:1007B0009A30F4009930F5007930F6008130F70076
:1007C0002708F0002808F1002908F2002A08F300A1
:1007D000C220013003180030F00070080319F42B18
:1007E0000730A5000030A6009A30F4009930F500DB
:1007F0007930F6008130F7002708F0002808F10072
:100800002908F2002A08F300C2200130031C00303E
:10081000F00070080319282CCD30F400CC30F5001E
:100820000C30F6008230F7002708F0002808F100AD
:100830002908F2002A08F300C22001300318003012
:10084000F00070080319282C0830A5000030A6001D
:10085000CD30F400CC30F5000C30F6008230F700DB
:100860002708F0002808F1002908F2002A08F30000
:10087000C2200130031C0030F000700803195C2C0A
:10088000CD30F400CC30F5001C30F6008230F7009B
:100890002708F0002808F1002908F2002A08F300D0
:1008A000C220013003180030F000700803195C2CDE
:1008B0000930A5000030A600CD30F400CC30F500A2
:1008C0001C30F6008230F7002708F0002808F100FD
:1008D0002908F2002A08F300C2200130031C00306E
:1008E000F00070080319902CCD30F400CC30F500E6
:1008F0002C30F6008230F7002708F0002808F100BD
:100900002908F2002A08F300C22001300318003041
:10091000F00070080319902C0A30A5000030A600E2
:10092000CD30F400CC30F5002C30F6008230F700EA
:100930002708F0002808F1002908F2002A08F3002F
:10094000C2200130031C0030F00070080319C42CD1
:10095000CD30F400CC30F5003C30F6008230F700AA
:100960002708F0002808F1002908F2002A08F300FF
:10097000C220013003180030F00070080319C42CA5
:100980000B30A5000030A600CD30F400CC30F500CF
:100990003C30F6008230F7002708F0002808F1000C
:1009A0002908F2002A08F300C2200130031C00309D
:1009B000F00070080319F82CCD30F400CC30F500AD
:1009C0004C30F6008230F7002708F0002808F100CC
:1009D0002908F2002A08F300C22001300318003071
:1009E000F00070080319F82C0C30A5000030A600A8
:1009F000CD30F400CC30F5004C30F6008230F700FA
:100A00002708F0002808F1002908F2002A08F3005E
:100A1000C2200130031C0030F000700803192C2D97
:100A20000030F4000030F5005830F6008230F70056
:100A30002708F0002808F1002908F2002A08F3002E
:100A4000C220013003180030F000700803192C2D6B
:100A50000D30A5000030A6000030F4000030F50095
:100A60005830F6008230F7002708F0002808F1001F
:100A70002908F2002A08F300C2200130031C0030CC
:100A8000F00070080319482D0E30A5000030A600B4
:100A90006430F4000030F5002508F0002608F1006D
:100AA0003D217808F0007908F1007008BA0071085B
:100AB000BB003A08B2003B08B3000A30F400003033
:100AC000F5003A08F0003B08F1003D217008B8003D
:100AD0007108B9000A30F4000030F5003A08F0005F
:100AE0003B08F1003D217808F0007908F1000A3058
:100AF000F4000030F5003D2170083802B2007108A2
:100B0000031C013E3902B3000A30F4000030F50046
:100B10002508F0002608F1003D217808F00079084A
:100B2000F1007008B4007108B5000230FC002930F3
:100B3000FD00FD0B992DFC0B992D00000000472AAC
:020B4000A02DE6
:100B6400253084000B3083120313F000A630B0004C
:080B74000530B100A6210800C4
:040B4C00003400343D
:080B50000034003400340034CD
:040B58000134003430
:020B5C000F3454
:040B5E00003400342B
:02400E00492F38
:00000001FF
